{
  "_format": "hh-sol-artifact-1",
  "contractName": "Survey",
  "sourceName": "contracts/Survey.sol",
  "abi": [
    {
      "anonymous": false,
      "inputs": [
        {
          "indexed": true,
          "internalType": "address",
          "name": "respondent",
          "type": "address"
        },
        {
          "indexed": false,
          "internalType": "string",
          "name": "name",
          "type": "string"
        },
        {
          "indexed": false,
          "internalType": "string",
          "name": "email",
          "type": "string"
        },
        {
          "indexed": false,
          "internalType": "string",
          "name": "usn",
          "type": "string"
        },
        {
          "indexed": false,
          "internalType": "string",
          "name": "response1",
          "type": "string"
        },
        {
          "indexed": false,
          "internalType": "string",
          "name": "response2",
          "type": "string"
        }
      ],
      "name": "ResponseSubmitted",
      "type": "event"
    },
    {
      "inputs": [],
      "name": "getResponses",
      "outputs": [
        {
          "components": [
            {
              "internalType": "address",
              "name": "respondent",
              "type": "address"
            },
            {
              "internalType": "string",
              "name": "name",
              "type": "string"
            },
            {
              "internalType": "string",
              "name": "email",
              "type": "string"
            },
            {
              "internalType": "string",
              "name": "usn",
              "type": "string"
            },
            {
              "internalType": "string",
              "name": "response1",
              "type": "string"
            },
            {
              "internalType": "string",
              "name": "response2",
              "type": "string"
            }
          ],
          "internalType": "struct Survey.Response[]",
          "name": "",
          "type": "tuple[]"
        }
      ],
      "stateMutability": "view",
      "type": "function"
    },
    {
      "inputs": [
        {
          "internalType": "string",
          "name": "_name",
          "type": "string"
        },
        {
          "internalType": "string",
          "name": "_email",
          "type": "string"
        },
        {
          "internalType": "string",
          "name": "_usn",
          "type": "string"
        },
        {
          "internalType": "string",
          "name": "_response1",
          "type": "string"
        },
        {
          "internalType": "string",
          "name": "_response2",
          "type": "string"
        }
      ],
      "name": "submitResponse",
      "outputs": [],
      "stateMutability": "nonpayable",
      "type": "function"
    }
  ],
  "bytecode": "0x608060405234801561001057600080fd5b50610e0e806100206000396000f3fe608060405234801561001057600080fd5b50600436106100365760003560e01c80636ccbf5fb1461003b578063cc5ef00914610057575b600080fd5b610055600480360381019061005091906106e0565b610075565b005b61005f6101f7565b60405161006c9190610a0e565b60405180910390f35b60006040518060c001604052803373ffffffffffffffffffffffffffffffffffffffff16815260200187815260200186815260200185815260200184815260200183815250908060018154018082558091505060019003906000526020600020906006020160009091909190915060008201518160000160006101000a81548173ffffffffffffffffffffffffffffffffffffffff021916908373ffffffffffffffffffffffffffffffffffffffff160217905550602082015181600101908161013f9190610c46565b5060408201518160020190816101559190610c46565b50606082015181600301908161016b9190610c46565b5060808201518160040190816101819190610c46565b5060a08201518160050190816101979190610c46565b5050503373ffffffffffffffffffffffffffffffffffffffff167f704ea050de7adb8d44c6614d2e0d6cb15dc2896efb7d74dac569391f12193fe286868686866040516101e8959493929190610d62565b60405180910390a25050505050565b60606000805480602002602001604051908101604052809291908181526020016000905b8282101561057d57838290600052602060002090600602016040518060c00160405290816000820160009054906101000a900473ffffffffffffffffffffffffffffffffffffffff1673ffffffffffffffffffffffffffffffffffffffff1673ffffffffffffffffffffffffffffffffffffffff1681526020016001820180546102a490610a5f565b80601f01602080910402602001604051908101604052809291908181526020018280546102d090610a5f565b801561031d5780601f106102f25761010080835404028352916020019161031d565b820191906000526020600020905b81548152906001019060200180831161030057829003601f168201915b5050505050815260200160028201805461033690610a5f565b80601f016020809104026020016040519081016040528092919081815260200182805461036290610a5f565b80156103af5780601f10610384576101008083540402835291602001916103af565b820191906000526020600020905b81548152906001019060200180831161039257829003601f168201915b505050505081526020016003820180546103c890610a5f565b80601f01602080910402602001604051908101604052809291908181526020018280546103f490610a5f565b80156104415780601f1061041657610100808354040283529160200191610441565b820191906000526020600020905b81548152906001019060200180831161042457829003601f168201915b5050505050815260200160048201805461045a90610a5f565b80601f016020809104026020016040519081016040528092919081815260200182805461048690610a5f565b80156104d35780601f106104a8576101008083540402835291602001916104d3565b820191906000526020600020905b8154815290600101906020018083116104b657829003601f168201915b505050505081526020016005820180546104ec90610a5f565b80601f016020809104026020016040519081016040528092919081815260200182805461051890610a5f565b80156105655780601f1061053a57610100808354040283529160200191610565565b820191906000526020600020905b81548152906001019060200180831161054857829003601f168201915b5050505050815250508152602001906001019061021b565b50505050905090565b6000604051905090565b600080fd5b600080fd5b600080fd5b600080fd5b6000601f19601f8301169050919050565b7f4e487b7100000000000000000000000000000000000000000000000000000000600052604160045260246000fd5b6105ed826105a4565b810181811067ffffffffffffffff8211171561060c5761060b6105b5565b5b80604052505050565b600061061f610586565b905061062b82826105e4565b919050565b600067ffffffffffffffff82111561064b5761064a6105b5565b5b610654826105a4565b9050602081019050919050565b82818337600083830152505050565b600061068361067e84610630565b610615565b90508281526020810184848401111561069f5761069e61059f565b5b6106aa848285610661565b509392505050565b600082601f8301126106c7576106c661059a565b5b81356106d7848260208601610670565b91505092915050565b600080600080600060a086880312156106fc576106fb610590565b5b600086013567ffffffffffffffff81111561071a57610719610595565b5b610726888289016106b2565b955050602086013567ffffffffffffffff81111561074757610746610595565b5b610753888289016106b2565b945050604086013567ffffffffffffffff81111561077457610773610595565b5b610780888289016106b2565b935050606086013567ffffffffffffffff8111156107a1576107a0610595565b5b6107ad888289016106b2565b925050608086013567ffffffffffffffff8111156107ce576107cd610595565b5b6107da888289016106b2565b9150509295509295909350565b600081519050919050565b600082825260208201905092915050565b6000819050602082019050919050565b600073ffffffffffffffffffffffffffffffffffffffff82169050919050565b600061083e82610813565b9050919050565b61084e81610833565b82525050565b600081519050919050565b600082825260208201905092915050565b60005b8381101561088e578082015181840152602081019050610873565b60008484015250505050565b60006108a582610854565b6108af818561085f565b93506108bf818560208601610870565b6108c8816105a4565b840191505092915050565b600060c0830160008301516108eb6000860182610845565b5060208301518482036020860152610903828261089a565b9150506040830151848203604086015261091d828261089a565b91505060608301518482036060860152610937828261089a565b91505060808301518482036080860152610951828261089a565b91505060a083015184820360a086015261096b828261089a565b9150508091505092915050565b600061098483836108d3565b905092915050565b6000602082019050919050565b60006109a4826107e7565b6109ae81856107f2565b9350836020820285016109c085610803565b8060005b858110156109fc57848403895281516109dd8582610978565b94506109e88361098c565b925060208a019950506001810190506109c4565b50829750879550505050505092915050565b60006020820190508181036000830152610a288184610999565b905092915050565b7f4e487b7100000000000000000000000000000000000000000000000000000000600052602260045260246000fd5b60006002820490506001821680610a7757607f821691505b602082108103610a8a57610a89610a30565b5b50919050565b60008190508160005260206000209050919050565b60006020601f8301049050919050565b600082821b905092915050565b600060088302610af27fffffffffffffffffffffffffffffffffffffffffffffffffffffffffffffffff82610ab5565b610afc8683610ab5565b95508019841693508086168417925050509392505050565b6000819050919050565b6000819050919050565b6000610b43610b3e610b3984610b14565b610b1e565b610b14565b9050919050565b6000819050919050565b610b5d83610b28565b610b71610b6982610b4a565b848454610ac2565b825550505050565b600090565b610b86610b79565b610b91818484610b54565b505050565b5b81811015610bb557610baa600082610b7e565b600181019050610b97565b5050565b601f821115610bfa57610bcb81610a90565b610bd484610aa5565b81016020851015610be3578190505b610bf7610bef85610aa5565b830182610b96565b50505b505050565b600082821c905092915050565b6000610c1d60001984600802610bff565b1980831691505092915050565b6000610c368383610c0c565b9150826002028217905092915050565b610c4f82610854565b67ffffffffffffffff811115610c6857610c676105b5565b5b610c728254610a5f565b610c7d828285610bb9565b600060209050601f831160018114610cb05760008415610c9e578287015190505b610ca88582610c2a565b865550610d10565b601f198416610cbe86610a90565b60005b82811015610ce657848901518255600182019150602085019450602081019050610cc1565b86831015610d035784890151610cff601f891682610c0c565b8355505b6001600288020188555050505b505050505050565b600082825260208201905092915050565b6000610d3482610854565b610d3e8185610d18565b9350610d4e818560208601610870565b610d57816105a4565b840191505092915050565b600060a0820190508181036000830152610d7c8188610d29565b90508181036020830152610d908187610d29565b90508181036040830152610da48186610d29565b90508181036060830152610db88185610d29565b90508181036080830152610dcc8184610d29565b9050969550505050505056fea26469706673582212207f91c45c674540d5d6f17dcc0cf8a61b5972480269ccd10c033191d74a82666c64736f6c63430008180033",
  "linkReferences": {},
  "deployedLinkReferences": {}
}